{
  "contractName": "Sentiment",
  "abi": [
    {
      "constant": true,
      "inputs": [
        {
          "name": "",
          "type": "uint256"
        }
      ],
      "name": "authorAcct",
      "outputs": [
        {
          "name": "",
          "type": "address"
        }
      ],
      "payable": false,
      "stateMutability": "view",
      "type": "function"
    },
    {
      "constant": true,
      "inputs": [
        {
          "name": "",
          "type": "address"
        }
      ],
      "name": "Bids",
      "outputs": [
        {
          "name": "message",
          "type": "string"
        },
        {
          "name": "author",
          "type": "string"
        },
        {
          "name": "paid",
          "type": "uint256"
        }
      ],
      "payable": false,
      "stateMutability": "view",
      "type": "function"
    },
    {
      "constant": true,
      "inputs": [
        {
          "name": "",
          "type": "uint256"
        }
      ],
      "name": "bidList",
      "outputs": [
        {
          "name": "message",
          "type": "string"
        },
        {
          "name": "author",
          "type": "string"
        },
        {
          "name": "paid",
          "type": "uint256"
        }
      ],
      "payable": false,
      "stateMutability": "view",
      "type": "function"
    },
    {
      "constant": false,
      "inputs": [
        {
          "name": "_message",
          "type": "string"
        },
        {
          "name": "_author",
          "type": "string"
        }
      ],
      "name": "recordbid",
      "outputs": [],
      "payable": true,
      "stateMutability": "payable",
      "type": "function"
    },
    {
      "constant": true,
      "inputs": [],
      "name": "displayAuthors",
      "outputs": [
        {
          "name": "",
          "type": "address[]"
        }
      ],
      "payable": false,
      "stateMutability": "view",
      "type": "function"
    },
    {
      "constant": false,
      "inputs": [
        {
          "name": "received",
          "type": "uint256"
        }
      ],
      "name": "acceptBid",
      "outputs": [
        {
          "name": "accept",
          "type": "bool"
        }
      ],
      "payable": true,
      "stateMutability": "payable",
      "type": "function"
    }
  ],
  "bytecode": "0x608060405234801561001057600080fd5b50610afb806100206000396000f300608060405260043610610077576000357c0100000000000000000000000000000000000000000000000000000000900463ffffffff1680622ffb7a1461007c5780630251e03e146100e95780632b1fd58a146102185780633fc3ca171461025057806351722e6b146102f2578063995620371461035e575b600080fd5b34801561008857600080fd5b506100a760048036038101908080359060200190929190505050610477565b604051808273ffffffffffffffffffffffffffffffffffffffff1673ffffffffffffffffffffffffffffffffffffffff16815260200191505060405180910390f35b3480156100f557600080fd5b5061012a600480360381019080803573ffffffffffffffffffffffffffffffffffffffff1690602001909291905050506104b5565b604051808060200180602001848152602001838103835286818151815260200191508051906020019080838360005b83811015610174578082015181840152602081019050610159565b50505050905090810190601f1680156101a15780820380516001836020036101000a031916815260200191505b50838103825285818151815260200191508051906020019080838360005b838110156101da5780820151818401526020810190506101bf565b50505050905090810190601f1680156102075780820380516001836020036101000a031916815260200191505b509550505050505060405180910390f35b6102366004803603810190808035906020019092919050505061060f565b604051808215151515815260200191505060405180910390f35b6102f0600480360381019080803590602001908201803590602001908080601f0160208091040260200160405190810160405280939291908181526020018383808284378201915050505050509192919290803590602001908201803590602001908080601f016020809104026020016040519081016040528093929190818152602001838380828437820191505050505050919291929050505061062f565b005b3480156102fe57600080fd5b506103076107ac565b6040518080602001828103825283818151815260200191508051906020019060200280838360005b8381101561034a57808201518184015260208101905061032f565b505050509050019250505060405180910390f35b34801561036a57600080fd5b506103896004803603810190808035906020019092919050505061083a565b604051808060200180602001848152602001838103835286818151815260200191508051906020019080838360005b838110156103d35780820151818401526020810190506103b8565b50505050905090810190601f1680156104005780820380516001836020036101000a031916815260200191505b50838103825285818151815260200191508051906020019080838360005b8381101561043957808201518184015260208101905061041e565b50505050905090810190601f1680156104665780820380516001836020036101000a031916815260200191505b509550505050505060405180910390f35b60018181548110151561048657fe5b906000526020600020016000915054906101000a900473ffffffffffffffffffffffffffffffffffffffff1681565b6000602052806000526040600020600091509050806000018054600181600116156101000203166002900480601f0160208091040260200160405190810160405280929190818152602001828054600181600116156101000203166002900480156105615780601f1061053657610100808354040283529160200191610561565b820191906000526020600020905b81548152906001019060200180831161054457829003601f168201915b505050505090806001018054600181600116156101000203166002900480601f0160208091040260200160405190810160405280929190818152602001828054600181600116156101000203166002900480156105ff5780601f106105d4576101008083540402835291602001916105ff565b820191906000526020600020905b8154815290600101906020018083116105e257829003601f168201915b5050505050908060020154905083565b6000806014905080831015151561062557600080fd5b6001915050919050565b600061063a3461060f565b506000803373ffffffffffffffffffffffffffffffffffffffff1673ffffffffffffffffffffffffffffffffffffffff1681526020019081526020016000209050828160000190805190602001906106939291906109a3565b50818160010190805190602001906106ac9291906109a3565b5034816002018190555060013390806001815401808255809150509060018203906000526020600020016000909192909190916101000a81548173ffffffffffffffffffffffffffffffffffffffff021916908373ffffffffffffffffffffffffffffffffffffffff160217905550506002819080600181540180825580915050906001820390600052602060002090600302016000909192909190915060008201816000019080546001816001161561010002031660029004610771929190610a23565b5060018201816001019080546001816001161561010002031660029004610799929190610a23565b5060028201548160020155505050505050565b6060600180548060200260200160405190810160405280929190818152602001828054801561083057602002820191906000526020600020905b8160009054906101000a900473ffffffffffffffffffffffffffffffffffffffff1673ffffffffffffffffffffffffffffffffffffffff16815260200190600101908083116107e6575b5050505050905090565b60028181548110151561084957fe5b9060005260206000209060030201600091509050806000018054600181600116156101000203166002900480601f0160208091040260200160405190810160405280929190818152602001828054600181600116156101000203166002900480156108f55780601f106108ca576101008083540402835291602001916108f5565b820191906000526020600020905b8154815290600101906020018083116108d857829003601f168201915b505050505090806001018054600181600116156101000203166002900480601f0160208091040260200160405190810160405280929190818152602001828054600181600116156101000203166002900480156109935780601f1061096857610100808354040283529160200191610993565b820191906000526020600020905b81548152906001019060200180831161097657829003601f168201915b5050505050908060020154905083565b828054600181600116156101000203166002900490600052602060002090601f016020900481019282601f106109e457805160ff1916838001178555610a12565b82800160010185558215610a12579182015b82811115610a115782518255916020019190600101906109f6565b5b509050610a1f9190610aaa565b5090565b828054600181600116156101000203166002900490600052602060002090601f016020900481019282601f10610a5c5780548555610a99565b82800160010185558215610a9957600052602060002091601f016020900482015b82811115610a98578254825591600101919060010190610a7d565b5b509050610aa69190610aaa565b5090565b610acc91905b80821115610ac8576000816000905550600101610ab0565b5090565b905600a165627a7a72305820a5ede2aaf4405eb8acb547266a32671a834e426b2d1890d2a15f2b2dbf070b850029",
  "source": "pragma solidity ^0.4.22;\n\ncontract Sentiment {\n    \n    struct Bid {\n        string message;\n        string author;\n        uint256 paid;\n    }\n    \n    mapping(address => Bid) public Bids;\n    address[] public authorAcct;\n    \n    Bid[] public bidList;\n    \n    function recordbid(string _message, string _author) public payable{\n        acceptBid(msg.value);\n        Bid storage currentBid = Bids[msg.sender];\n        currentBid.message = _message;\n        currentBid.author = _author;\n        currentBid.paid = msg.value;\n        \n        authorAcct.push(msg.sender);\n        bidList.push(currentBid);\n    }\n    \n    function displayAuthors() view public returns(address[]){\n        return authorAcct;\n    }\n    \n    \n    function acceptBid(uint256 received) public payable returns(bool accept){\n        uint minAmount = 20;\n        require (received >= minAmount);\n        return true;\n    }\n    \n}\n",
  "sourcePath": "/home/silverninja/solidity/Sentiment/contracts/Sentiment.sol",
  "compiler": {
    "name": "solc",
    "version": "0.4.24+commit.e67f0147.Emscripten.clang"
  },
  "schemaVersion": "2.0.1",
  "updatedAt": "2018-06-28T09:21:57.762Z"
}